:020000020000FC
:020000000DC031
:10001A0034C0F8940FED0DBF0FEF07BB0CE101BB25
:10002A0002E000BF03EB06BF01E003BF01E009BF26
:10003A0007E00BBD00EA0ABD0DE00EBD03E002BBFE
:10004A00789480FD02C0929801C0929A809901C06A
:10005A008160819901C08E7F08B70CE21AE024D032
:10006A00E8EAF0E0E00F0027F01F1490E8EAF0E079
:10007A00EF0DFF24FF1D0490E4CF939B08C042B309
:10008A00406142BB08BA42B3477F42BB07C042B392
:10009A00486042BB18BA42B34F7E42BB1895C0F9BA
:1000AA00A4B0999282D88090E02EE12617FD11958E
:1000BA0007FD0195FF1829E0001F2A9519F4E7FCAE
:1000CA0001950895FF1CF11A18F4F10E8894F4CFE3
:0400DA000894F2CFC5
:00000001FF
